:100000000C942A000C9447000C9449000C9447006F
:100010000C9447000C9447000C9447000C94470044
:100020000C9447000C9487000C9447000C944700F4
:100030000C9447000C9447000C9447000C94470024
:100040000C9447000C9447000C9447000C94A800B3
:100050000C94470011241FBECFE5D4E0DEBFCDBF16
:1000600010E0A0E6B0E0E0E2F3E002C005900D92FF
:10007000A236B107D9F720E0A2E6B0E001C01D9298
:10008000A436B207E1F70E944E010C948E010C9445
:1000900000001F920F920FB60F9211248F939F931F
:1000A00080916000909161008D31910541F089331C
:1000B000910549F0892B51F41092620007C081E04C
:1000C0008093620003C082E08093620080916300AD
:1000D000823049F480916000909161000196909384
:1000E00061008093600080916300813049F48091C9
:1000F000600090916100019790936100809360008F
:100100009F918F910F900FBE0F901F9018951F9287
:100110000F920FB60F9211248F938091630082305B
:1001200019F485B38F7B85BB80916300813019F40E
:1001300085B38F7D85BB80916300811103C085B33A
:10014000806685BB8F910F900FBE0F901F90189502
:100150001F920F920FB60F9211248F93809163001C
:10016000823019F485B3806485BB8091630081304F
:1001700019F485B3806285BB80916300811103C04F
:1001800085B3806685BB8F910F900FBE0F901F9037
:1001900018959AB321E030E0082E02C0220F331FD9
:1001A0000A94E2F7209529232ABB96B19F7D96B940
:1001B00096B1976096B996B1906896B997B19062EA
:1001C00097B997B1977E97B997B1987F97B997B13B
:1001D000892B87B987B1806487B986B1806486B975
:1001E0003699FECF85B196B19F7796B9089584E090
:1001F0000E94C900893228F084E00E94C90080E092
:10020000089581E0089520916000309161002D31C2
:10021000310541F02933310549F0232B51F4109277
:10022000620007C091E09093620003C092E0909357
:10023000620090916200891780F4209160003091F3
:10024000610021503109309361002093600005C0A6
:1002500091E09093630090E59CBF909162008917B4
:10026000B8F305C092E0909363009CED9CBF909121
:1002700062009817B8F310926300089599B3892F1C
:10028000817090FF0AC0C99B05C0CA9B05C089B395
:1002900083E0089581E0089582E008958FEF84BBA4
:1002A00015BA1ABA87E08BBB11BA88E082BB8BB74C
:1002B00080688BBF85B7886085BF85B78B7F85BF1A
:1002C00083B7856083BF89B7836089BF83B788643C
:1002D00083BF86EE8CBF789403C082E08093630076
:1002E0000E94F7008130C9F71092630010926100FC
:1002F000109260000E943E01813041F018F082307F
:1003000049F0F8CF80E00E940301F4CF81E00E9421
:100310000301F0CF82E00E940301ECCFF894FFCFFD
:02032000E803F0
:00000001FF
