S01100004175746F6D6174696B2E7372656364
S11300000C942A000C9447000C9483000C94470031
S11300100C9447000C9447000C9447000C94470040
S11300200C9447000C94DA000C9447000C9447009D
S11300300C9447000C9447000C9447000C94470020
S11300400C9447000C9447000C9447000C94FB005C
S11300500C94470011241FBECFE5D4E0DEBFCDBF12
S113006010E0A0E6B0E0E6E3F3E002C005900D92F4
S1130070A236B107D9F720E0A2E6B0E001C01D9294
S1130080A436B207E1F70E9459010C9499010C942B
S113009000009AB321E030E0082E02C0220F331F83
S11300A00A94E2F7209529232ABB96B19F7D96B93D
S11300B096B1976096B996B1906896B997B19062E7
S11300C097B997B1977E97B997B1987F97B997B138
S11300D0892B87B987B1806487B986B1806486B972
S11300E03699FECF85B196B19F7796B9089584E08D
S11300F00E9449008F3128F084E00E94490080E08A
S1130100089581E008951F920F920FB60F92112463
S11301102F933F934F935F936F937F938F939F930B
S1130120AF93BF93EF93FF93809160009091610030
S11301308F31910519F0CC9729F007C081E08093A5
S1130140620003C082E0809362000E9477008130E5
S113015031F410926200109261001092600080915C
S11301606300823049F480916000909161000196AF
S1130170909361008093600080916300813049F422
S11301808091600090916100019790936100809349
S11301906000FF91EF91BF91AF919F918F917F91FB
S11301A06F915F914F913F912F910F900FBE0F90E0
S11301B01F9018951F920F920FB60F9211248F93D0
S11301C080916300823019F485B38F7B85BB809165
S11301D06300813019F485B38F7D85BB8091630002
S11301E0811103C085B3806685BB8F910F900FBECC
S11301F00F901F9018951F920F920FB60F92112413
S11302008F9380916300823019F485B3806485BB39
S113021080916300813019F485B3806285BB80913D
S11302206300811103C085B3806685BB8F910F90F5
S11302300FBE0F901F9018952091600030916100BF
S11302402F31310541F02C33310549F0232B81F452
S1130250109262000DC091E09093620009C092E098
S11302609093620005C091E09093630090E59CBF79
S1130270909162008917B8F305C092E090936300EF
S11302809CED9CBF909162009817B8F310926300A4
S1130290089599B3892F817090FF0AC0C99B05C046
S11302A0CA9B05C089B383E0089581E0089582E084
S11302B008958FEF84BB15BA1ABA87E08BBB11BAC5
S11302C088E082BB8BB780688BBF85B7886085BFA9
S11302D085B78B7F85BF83B7856083BF89B783600C
S11302E089BF83B7886483BF86EE8CBF789403C0CC
S11302F082E0809363000E9477008130C9F71092F6
S1130300630010926100109260000E9449018130E4
S113031041F018F0823049F0F8CF80E00E941C01CF
S1130320F4CF81E00E941C01F0CF82E00E941C0106
S1090330ECCFF894FFCFAE
S1050336E803D6
S9030000FC
